{"abi":[{"type":"constructor","inputs":[{"name":"_eggs","type":"address","internalType":"address"}],"stateMutability":"nonpayable"},{"type":"function","name":"allAntsIds","inputs":[{"name":"","type":"uint256","internalType":"uint256"}],"outputs":[{"name":"","type":"uint256","internalType":"uint256"}],"stateMutability":"view"},{"type":"function","name":"antToOwner","inputs":[{"name":"","type":"uint256","internalType":"uint256"}],"outputs":[{"name":"","type":"address","internalType":"address"}],"stateMutability":"view"},{"type":"function","name":"antsCreated","inputs":[],"outputs":[{"name":"","type":"uint256","internalType":"uint256"}],"stateMutability":"view"},{"type":"function","name":"approve","inputs":[{"name":"to","type":"address","internalType":"address"},{"name":"tokenId","type":"uint256","internalType":"uint256"}],"outputs":[],"stateMutability":"nonpayable"},{"type":"function","name":"balanceOf","inputs":[{"name":"owner","type":"address","internalType":"address"}],"outputs":[{"name":"","type":"uint256","internalType":"uint256"}],"stateMutability":"view"},{"type":"function","name":"buyEggs","inputs":[{"name":"_amount","type":"uint256","internalType":"uint256"}],"outputs":[],"stateMutability":"payable"},{"type":"function","name":"createAnt","inputs":[],"outputs":[],"stateMutability":"nonpayable"},{"type":"function","name":"eggPrice","inputs":[],"outputs":[{"name":"","type":"uint256","internalType":"uint256"}],"stateMutability":"view"},{"type":"function","name":"eggs","inputs":[],"outputs":[{"name":"","type":"address","internalType":"contract IEgg"}],"stateMutability":"view"},{"type":"function","name":"getAntsCreated","inputs":[],"outputs":[{"name":"","type":"uint256","internalType":"uint256"}],"stateMutability":"view"},{"type":"function","name":"getApproved","inputs":[{"name":"tokenId","type":"uint256","internalType":"uint256"}],"outputs":[{"name":"","type":"address","internalType":"address"}],"stateMutability":"view"},{"type":"function","name":"getContractBalance","inputs":[],"outputs":[{"name":"","type":"uint256","internalType":"uint256"}],"stateMutability":"view"},{"type":"function","name":"isApprovedForAll","inputs":[{"name":"owner","type":"address","internalType":"address"},{"name":"operator","type":"address","internalType":"address"}],"outputs":[{"name":"","type":"bool","internalType":"bool"}],"stateMutability":"view"},{"type":"function","name":"locked","inputs":[],"outputs":[{"name":"","type":"bool","internalType":"bool"}],"stateMutability":"view"},{"type":"function","name":"name","inputs":[],"outputs":[{"name":"","type":"string","internalType":"string"}],"stateMutability":"view"},{"type":"function","name":"notLocked","inputs":[],"outputs":[{"name":"","type":"bool","internalType":"bool"}],"stateMutability":"view"},{"type":"function","name":"ownerOf","inputs":[{"name":"tokenId","type":"uint256","internalType":"uint256"}],"outputs":[{"name":"","type":"address","internalType":"address"}],"stateMutability":"view"},{"type":"function","name":"safeTransferFrom","inputs":[{"name":"from","type":"address","internalType":"address"},{"name":"to","type":"address","internalType":"address"},{"name":"tokenId","type":"uint256","internalType":"uint256"}],"outputs":[],"stateMutability":"nonpayable"},{"type":"function","name":"safeTransferFrom","inputs":[{"name":"from","type":"address","internalType":"address"},{"name":"to","type":"address","internalType":"address"},{"name":"tokenId","type":"uint256","internalType":"uint256"},{"name":"data","type":"bytes","internalType":"bytes"}],"outputs":[],"stateMutability":"nonpayable"},{"type":"function","name":"sellAnt","inputs":[{"name":"_antId","type":"uint256","internalType":"uint256"}],"outputs":[],"stateMutability":"nonpayable"},{"type":"function","name":"setApprovalForAll","inputs":[{"name":"operator","type":"address","internalType":"address"},{"name":"approved","type":"bool","internalType":"bool"}],"outputs":[],"stateMutability":"nonpayable"},{"type":"function","name":"supportsInterface","inputs":[{"name":"interfaceId","type":"bytes4","internalType":"bytes4"}],"outputs":[{"name":"","type":"bool","internalType":"bool"}],"stateMutability":"view"},{"type":"function","name":"symbol","inputs":[],"outputs":[{"name":"","type":"string","internalType":"string"}],"stateMutability":"view"},{"type":"function","name":"tokenURI","inputs":[{"name":"tokenId","type":"uint256","internalType":"uint256"}],"outputs":[{"name":"","type":"string","internalType":"string"}],"stateMutability":"view"},{"type":"function","name":"transferFrom","inputs":[{"name":"from","type":"address","internalType":"address"},{"name":"to","type":"address","internalType":"address"},{"name":"tokenId","type":"uint256","internalType":"uint256"}],"outputs":[],"stateMutability":"nonpayable"},{"type":"event","name":"AntCreated","inputs":[],"anonymous":false},{"type":"event","name":"AntSold","inputs":[],"anonymous":false},{"type":"event","name":"Approval","inputs":[{"name":"owner","type":"address","indexed":true,"internalType":"address"},{"name":"approved","type":"address","indexed":true,"internalType":"address"},{"name":"tokenId","type":"uint256","indexed":true,"internalType":"uint256"}],"anonymous":false},{"type":"event","name":"ApprovalForAll","inputs":[{"name":"owner","type":"address","indexed":true,"internalType":"address"},{"name":"operator","type":"address","indexed":true,"internalType":"address"},{"name":"approved","type":"bool","indexed":false,"internalType":"bool"}],"anonymous":false},{"type":"event","name":"EggsBought","inputs":[{"name":"","type":"address","indexed":false,"internalType":"address"},{"name":"","type":"uint256","indexed":false,"internalType":"uint256"}],"anonymous":false},{"type":"event","name":"Transfer","inputs":[{"name":"from","type":"address","indexed":true,"internalType":"address"},{"name":"to","type":"address","indexed":true,"internalType":"address"},{"name":"tokenId","type":"uint256","indexed":true,"internalType":"uint256"}],"anonymous":false},{"type":"error","name":"AlreadyExists","inputs":[]},{"type":"error","name":"ERC721IncorrectOwner","inputs":[{"name":"sender","type":"address","internalType":"address"},{"name":"tokenId","type":"uint256","internalType":"uint256"},{"name":"owner","type":"address","internalType":"address"}]},{"type":"error","name":"ERC721InsufficientApproval","inputs":[{"name":"operator","type":"address","internalType":"address"},{"name":"tokenId","type":"uint256","internalType":"uint256"}]},{"type":"error","name":"ERC721InvalidApprover","inputs":[{"name":"approver","type":"address","internalType":"address"}]},{"type":"error","name":"ERC721InvalidOperator","inputs":[{"name":"operator","type":"address","internalType":"address"}]},{"type":"error","name":"ERC721InvalidOwner","inputs":[{"name":"owner","type":"address","internalType":"address"}]},{"type":"error","name":"ERC721InvalidReceiver","inputs":[{"name":"receiver","type":"address","internalType":"address"}]},{"type":"error","name":"ERC721InvalidSender","inputs":[{"name":"sender","type":"address","internalType":"address"}]},{"type":"error","name":"ERC721NonexistentToken","inputs":[{"name":"tokenId","type":"uint256","internalType":"uint256"}]},{"type":"error","name":"NoEggs","inputs":[]},{"type":"error","name":"NoZeroAddress","inputs":[]},{"type":"error","name":"WrongEtherSent","inputs":[]}],"bytecode":{"object":"0x60a06040526006805460ff19908116909155662386f26fc10000600855600a805490911690555f600b5534801562000035575f80fd5b5060405162001e3638038062001e368339810160408190526200005891620000cd565b6040518060400160405280600b81526020016a43727970746f20416e747360a81b81525060405180604001604052806004815260200163414e545360e01b815250815f9081620000a991906200019a565b506001620000b882826200019a565b5050506001600160a01b031660805262000266565b5f60208284031215620000de575f80fd5b81516001600160a01b0381168114620000f5575f80fd5b9392505050565b634e487b7160e01b5f52604160045260245ffd5b600181811c908216806200012557607f821691505b6020821081036200014457634e487b7160e01b5f52602260045260245ffd5b50919050565b601f8211156200019557805f5260205f20601f840160051c81016020851015620001715750805b601f840160051c820191505b8181101562000192575f81556001016200017d565b50505b505050565b81516001600160401b03811115620001b657620001b6620000fc565b620001ce81620001c7845462000110565b846200014a565b602080601f83116001811462000204575f8415620001ec5750858301515b5f19600386901b1c1916600185901b1785556200025e565b5f85815260208120601f198616915b82811015620002345788860151825594840194600190910190840162000213565b50858210156200025257878501515f19600388901b60f8161c191681555b505060018460011b0185555b505050505050565b608051611ba96200028d5f395f8181610432015281816107690152610a4e0152611ba95ff3fe60806040526004361061018e575f3560e01c80636352211e116100dc578063b011098611610087578063cf30901211610062578063cf30901214610408578063e33f76cf14610421578063e985e9c514610454578063f770031c1461049b575f80fd5b8063b0110986146103ab578063b88d4fde146103ca578063c87b56dd146103e9575f80fd5b806395d89b41116100b757806395d89b4114610363578063a22cb46514610377578063a993efbc14610396575f80fd5b80636352211e146103135780636f9fb98a1461033257806370a0823114610344575f80fd5b80632e61a7bf1161013c57806342842e0e1161011757806342842e0e146102c25780634fd53596146102e157806361dcb054146102f4575f80fd5b80632e61a7bf14610277578063305e35521461028b5780633d871229146102ae575f80fd5b8063095ea7b31161016c578063095ea7b31461021e57806317e356a11461023f57806323b872dd14610258575f80fd5b806301ffc9a71461019257806306fdde03146101c6578063081812fc146101e7575b5f80fd5b34801561019d575f80fd5b506101b16101ac3660046116f8565b6104cf565b60405190151581526020015b60405180910390f35b3480156101d1575f80fd5b506101da6105b3565b6040516101bd919061177e565b3480156101f2575f80fd5b50610206610201366004611790565b610642565b6040516001600160a01b0390911681526020016101bd565b348015610229575f80fd5b5061023d6102383660046117c2565b610669565b005b34801561024a575f80fd5b50600a546101b19060ff1681565b348015610263575f80fd5b5061023d6102723660046117ea565b610678565b348015610282575f80fd5b5061023d610738565b348015610296575f80fd5b506102a060085481565b6040519081526020016101bd565b3480156102b9575f80fd5b50600b546102a0565b3480156102cd575f80fd5b5061023d6102dc3660046117ea565b61092b565b61023d6102ef366004611790565b61094a565b3480156102ff575f80fd5b5061023d61030e366004611790565b610b22565b34801561031e575f80fd5b5061020661032d366004611790565b610c93565b34801561033d575f80fd5b50476102a0565b34801561034f575f80fd5b506102a061035e366004611823565b610c9d565b34801561036e575f80fd5b506101da610cfb565b348015610382575f80fd5b5061023d61039136600461183c565b610d0a565b3480156103a1575f80fd5b506102a0600b5481565b3480156103b6575f80fd5b506102a06103c5366004611790565b610d15565b3480156103d5575f80fd5b5061023d6103e43660046118a2565b610d34565b3480156103f4575f80fd5b506101da610403366004611790565b610d4c565b348015610413575f80fd5b506006546101b19060ff1681565b34801561042c575f80fd5b506102067f000000000000000000000000000000000000000000000000000000000000000081565b34801561045f575f80fd5b506101b161046e366004611995565b6001600160a01b039182165f90815260056020908152604080832093909416825291909152205460ff1690565b3480156104a6575f80fd5b506102066104b5366004611790565b60076020525f90815260409020546001600160a01b031681565b5f7fffffffff0000000000000000000000000000000000000000000000000000000082167f80ac58cd00000000000000000000000000000000000000000000000000000000148061056157507fffffffff0000000000000000000000000000000000000000000000000000000082167f5b5e139f00000000000000000000000000000000000000000000000000000000145b806105ad57507f01ffc9a7000000000000000000000000000000000000000000000000000000007fffffffff000000000000000000000000000000000000000000000000000000008316145b92915050565b60605f80546105c1906119c6565b80601f01602080910402602001604051908101604052809291908181526020018280546105ed906119c6565b80156106385780601f1061060f57610100808354040283529160200191610638565b820191905f5260205f20905b81548152906001019060200180831161061b57829003601f168201915b5050505050905090565b5f61064c82610dbd565b505f828152600460205260409020546001600160a01b03166105ad565b610674828233610e0e565b5050565b6001600160a01b0382166106bf576040517f64a0ae920000000000000000000000000000000000000000000000000000000081525f60048201526024015b60405180910390fd5b5f6106cb838333610e1b565b9050836001600160a01b0316816001600160a01b031614610732576040517f64283d7b0000000000000000000000000000000000000000000000000000000081526001600160a01b03808616600483015260248201849052821660448201526064016106b6565b50505050565b6040517f70a082310000000000000000000000000000000000000000000000000000000081523360048201526001907f00000000000000000000000000000000000000000000000000000000000000006001600160a01b0316906370a0823190602401602060405180830381865afa1580156107b6573d5f803e3d5ffd5b505050506040513d601f19601f820116820180604052508101906107da9190611a17565b1015610812576040517f6c308a2f00000000000000000000000000000000000000000000000000000000815260040160405180910390fd5b5f600b5f815461082190611a2e565b918290555090505f5b60095481101561089057816009828154811061084857610848611a8a565b905f5260205f20015403610888576040517f23369fa600000000000000000000000000000000000000000000000000000000815260040160405180910390fd5b60010161082a565b5061089b3382610f44565b5f8181526007602052604080822080547fffffffffffffffffffffffff00000000000000000000000000000000000000001633179055600980546001810182559083527f6e1540171b6c0c960b71a7020d9f60077f6af931a8bbf590da0223dacf75c7af01839055517fa38da27c8afea1e833812265c5f9c3f1def6eaf2e7d9b42c1b4d9d8ea69b0b759190a150565b61094583838360405180602001604052805f815250610d34565b505050565b60065460ff16156109dd576040517f08c379a000000000000000000000000000000000000000000000000000000000815260206004820152602e60248201527f536f7272792c20796f7520617265206e6f7420616c6c6f77656420746f20726560448201527f2d656e7465722068657265203a2900000000000000000000000000000000000060648201526084016106b6565b600680547fffffffffffffffffffffffffffffffffffffffffffffffffffffffffffffff001660011790556008545f610a168234611ab7565b6040517f40c10f19000000000000000000000000000000000000000000000000000000008152336004820152602481018590529091507f00000000000000000000000000000000000000000000000000000000000000006001600160a01b0316906340c10f19906044015f604051808303815f87803b158015610a97575f80fd5b505af1158015610aa9573d5f803e3d5ffd5b505060408051338152602081018590527fecedcda9002dd5028204a70dddaa2155459b6dff3c3e20543450a189e736dc49935001905060405180910390a15050600a54600680547fffffffffffffffffffffffffffffffffffffffffffffffffffffffffffffff001660ff909216151591909117905550565b5f818152600760205260409020546001600160a01b03163314610ba1576040517f08c379a000000000000000000000000000000000000000000000000000000000815260206004820152600c60248201527f556e617574686f72697a6564000000000000000000000000000000000000000060448201526064016106b6565b6040515f903390660e35fa931a0000908381818185875af1925050503d805f8114610be7576040519150601f19603f3d011682016040523d82523d5f602084013e610bec565b606091505b5050905080610c57576040517f08c379a000000000000000000000000000000000000000000000000000000000815260206004820152601960248201527f57686f6f70732c20746869732063616c6c206661696c6564210000000000000060448201526064016106b6565b5f82815260076020526040902080547fffffffffffffffffffffffff000000000000000000000000000000000000000016905561067482610fd7565b5f6105ad82610dbd565b5f6001600160a01b038216610ce0576040517f89c62b640000000000000000000000000000000000000000000000000000000081525f60048201526024016106b6565b506001600160a01b03165f9081526003602052604090205490565b6060600180546105c1906119c6565b610674338383611028565b60098181548110610d24575f80fd5b5f91825260209091200154905081565b610d3f848484610678565b61073233858585856110fd565b6060610d5782610dbd565b505f610d6d60408051602081019091525f815290565b90505f815111610d8b5760405180602001604052805f815250610db6565b80610d95846112bf565b604051602001610da6929190611aef565b6040516020818303038152906040525b9392505050565b5f818152600260205260408120546001600160a01b0316806105ad576040517f7e273289000000000000000000000000000000000000000000000000000000008152600481018490526024016106b6565b610945838383600161137b565b5f828152600260205260408120546001600160a01b0390811690831615610e4757610e478184866114ce565b6001600160a01b03811615610ea057610e625f855f8061137b565b6001600160a01b0381165f90815260036020526040902080547fffffffffffffffffffffffffffffffffffffffffffffffffffffffffffffffff0190555b6001600160a01b03851615610ece576001600160a01b0385165f908152600360205260409020805460010190555b5f8481526002602052604080822080547fffffffffffffffffffffffff0000000000000000000000000000000000000000166001600160a01b0389811691821790925591518793918516917fddf252ad1be2c89b69c2b068fc378daa952ba7f163c4a11628f55a4df523b3ef91a4949350505050565b6001600160a01b038216610f86576040517f64a0ae920000000000000000000000000000000000000000000000000000000081525f60048201526024016106b6565b5f610f9283835f610e1b565b90506001600160a01b03811615610945576040517f73c6ac6e0000000000000000000000000000000000000000000000000000000081525f60048201526024016106b6565b5f610fe35f835f610e1b565b90506001600160a01b038116610674576040517f7e273289000000000000000000000000000000000000000000000000000000008152600481018390526024016106b6565b6001600160a01b038216611073576040517f5b08ba180000000000000000000000000000000000000000000000000000000081526001600160a01b03831660048201526024016106b6565b6001600160a01b038381165f8181526005602090815260408083209487168084529482529182902080547fffffffffffffffffffffffffffffffffffffffffffffffffffffffffffffff001686151590811790915591519182527f17307eab39ab6107e8899845ad3d59bd9653f200f220920489ca2b5937696c31910160405180910390a3505050565b6001600160a01b0383163b156112b8576040517f150b7a020000000000000000000000000000000000000000000000000000000081526001600160a01b0384169063150b7a0290611158908890889087908790600401611b1d565b6020604051808303815f875af19250505080156111b0575060408051601f3d9081017fffffffffffffffffffffffffffffffffffffffffffffffffffffffffffffffe01682019092526111ad91810190611b58565b60015b611230573d8080156111dd576040519150601f19603f3d011682016040523d82523d5f602084013e6111e2565b606091505b5080515f03611228576040517f64a0ae920000000000000000000000000000000000000000000000000000000081526001600160a01b03851660048201526024016106b6565b805160208201fd5b7fffffffff0000000000000000000000000000000000000000000000000000000081167f150b7a0200000000000000000000000000000000000000000000000000000000146112b6576040517f64a0ae920000000000000000000000000000000000000000000000000000000081526001600160a01b03851660048201526024016106b6565b505b5050505050565b60605f6112cb83611564565b60010190505f8167ffffffffffffffff8111156112ea576112ea611875565b6040519080825280601f01601f191660200182016040528015611314576020820181803683370190505b5090508181016020015b7fffffffffffffffffffffffffffffffffffffffffffffffffffffffffffffffff017f3031323334353637383961626364656600000000000000000000000000000000600a86061a8153600a850494508461131e57509392505050565b808061138f57506001600160a01b03821615155b15611487575f61139e84610dbd565b90506001600160a01b038316158015906113ca5750826001600160a01b0316816001600160a01b031614155b80156113fb57506001600160a01b038082165f9081526005602090815260408083209387168352929052205460ff16155b1561143d576040517fa9fbf51f0000000000000000000000000000000000000000000000000000000081526001600160a01b03841660048201526024016106b6565b81156114855783856001600160a01b0316826001600160a01b03167f8c5be1e5ebec7d5bd14f71427d1e84f3dd0314c0f7b2291e5b200ac8c7c3b92560405160405180910390a45b505b50505f90815260046020526040902080547fffffffffffffffffffffffff0000000000000000000000000000000000000000166001600160a01b0392909216919091179055565b6114d9838383611645565b610945576001600160a01b038316611520576040517f7e273289000000000000000000000000000000000000000000000000000000008152600481018290526024016106b6565b6040517f177e802f0000000000000000000000000000000000000000000000000000000081526001600160a01b0383166004820152602481018290526044016106b6565b5f807a184f03e93ff9f4daa797ed6e38ed64bf6a1f01000000000000000083106115ac577a184f03e93ff9f4daa797ed6e38ed64bf6a1f010000000000000000830492506040015b6d04ee2d6d415b85acef810000000083106115d8576d04ee2d6d415b85acef8100000000830492506020015b662386f26fc1000083106115f657662386f26fc10000830492506010015b6305f5e100831061160e576305f5e100830492506008015b612710831061162257612710830492506004015b60648310611634576064830492506002015b600a83106105ad5760010192915050565b5f6001600160a01b038316158015906116c05750826001600160a01b0316846001600160a01b0316148061169d57506001600160a01b038085165f9081526005602090815260408083209387168352929052205460ff165b806116c057505f828152600460205260409020546001600160a01b038481169116145b949350505050565b7fffffffff00000000000000000000000000000000000000000000000000000000811681146116f5575f80fd5b50565b5f60208284031215611708575f80fd5b8135610db6816116c8565b5f5b8381101561172d578181015183820152602001611715565b50505f910152565b5f815180845261174c816020860160208601611713565b601f017fffffffffffffffffffffffffffffffffffffffffffffffffffffffffffffffe0169290920160200192915050565b602081525f610db66020830184611735565b5f602082840312156117a0575f80fd5b5035919050565b80356001600160a01b03811681146117bd575f80fd5b919050565b5f80604083850312156117d3575f80fd5b6117dc836117a7565b946020939093013593505050565b5f805f606084860312156117fc575f80fd5b611805846117a7565b9250611813602085016117a7565b9150604084013590509250925092565b5f60208284031215611833575f80fd5b610db6826117a7565b5f806040838503121561184d575f80fd5b611856836117a7565b91506020830135801515811461186a575f80fd5b809150509250929050565b7f4e487b71000000000000000000000000000000000000000000000000000000005f52604160045260245ffd5b5f805f80608085870312156118b5575f80fd5b6118be856117a7565b93506118cc602086016117a7565b925060408501359150606085013567ffffffffffffffff808211156118ef575f80fd5b818701915087601f830112611902575f80fd5b81358181111561191457611914611875565b604051601f82017fffffffffffffffffffffffffffffffffffffffffffffffffffffffffffffffe0908116603f0116810190838211818310171561195a5761195a611875565b816040528281528a6020848701011115611972575f80fd5b826020860160208301375f60208483010152809550505050505092959194509250565b5f80604083850312156119a6575f80fd5b6119af836117a7565b91506119bd602084016117a7565b90509250929050565b600181811c908216806119da57607f821691505b602082108103611a11577f4e487b71000000000000000000000000000000000000000000000000000000005f52602260045260245ffd5b50919050565b5f60208284031215611a27575f80fd5b5051919050565b5f7fffffffffffffffffffffffffffffffffffffffffffffffffffffffffffffffff8203611a83577f4e487b71000000000000000000000000000000000000000000000000000000005f52601160045260245ffd5b5060010190565b7f4e487b71000000000000000000000000000000000000000000000000000000005f52603260045260245ffd5b5f82611aea577f4e487b71000000000000000000000000000000000000000000000000000000005f52601260045260245ffd5b500490565b5f8351611b00818460208801611713565b835190830190611b14818360208801611713565b01949350505050565b5f6001600160a01b03808716835280861660208401525083604083015260806060830152611b4e6080830184611735565b9695505050505050565b5f60208284031215611b68575f80fd5b8151610db6816116c856fea2646970667358221220d0f035b229fa1fe4233315b9c3abb334d9d72aac65e893eee6f2d1bd15d46c0d64736f6c63430008170033","linkReferences":{}},"methodIdentifiers":{"allAntsIds(uint256)":"b0110986","antToOwner(uint256)":"f770031c","antsCreated()":"a993efbc","approve(address,uint256)":"095ea7b3","balanceOf(address)":"70a08231","buyEggs(uint256)":"4fd53596","createAnt()":"2e61a7bf","eggPrice()":"305e3552","eggs()":"e33f76cf","getAntsCreated()":"3d871229","getApproved(uint256)":"081812fc","getContractBalance()":"6f9fb98a","isApprovedForAll(address,address)":"e985e9c5","locked()":"cf309012","name()":"06fdde03","notLocked()":"17e356a1","ownerOf(uint256)":"6352211e","safeTransferFrom(address,address,uint256)":"42842e0e","safeTransferFrom(address,address,uint256,bytes)":"b88d4fde","sellAnt(uint256)":"61dcb054","setApprovalForAll(address,bool)":"a22cb465","supportsInterface(bytes4)":"01ffc9a7","symbol()":"95d89b41","tokenURI(uint256)":"c87b56dd","transferFrom(address,address,uint256)":"23b872dd"},"id":42}